{
  "contractName": "greeter",
  "abi": [
    {
      "inputs": [
        {
          "internalType": "string",
          "name": "_greeting",
          "type": "string"
        }
      ],
      "stateMutability": "nonpayable",
      "type": "constructor"
    },
    {
      "inputs": [],
      "name": "kill",
      "outputs": [],
      "stateMutability": "nonpayable",
      "type": "function"
    },
    {
      "inputs": [],
      "name": "hello",
      "outputs": [
        {
          "internalType": "string",
          "name": "",
          "type": "string"
        }
      ],
      "stateMutability": "view",
      "type": "function"
    }
  ],
  "bytecode": "0x608060405234801561001057600080fd5b5060405161063f38038061063f833981810160405281019061003291906102b0565b336000806101000a81548173ffffffffffffffffffffffffffffffffffffffff021916908373ffffffffffffffffffffffffffffffffffffffff160217905550806001908051906020019061008892919061008f565b505061035a565b82805461009b90610328565b90600052602060002090601f0160209004810192826100bd5760008555610104565b82601f106100d657805160ff1916838001178555610104565b82800160010185558215610104579182015b828111156101035782518255916020019190600101906100e8565b5b5090506101119190610115565b5090565b5b8082111561012e576000816000905550600101610116565b5090565b6000604051905090565b600080fd5b600080fd5b600080fd5b600080fd5b6000601f19601f8301169050919050565b7f4e487b7100000000000000000000000000000000000000000000000000000000600052604160045260246000fd5b61019982610150565b810181811067ffffffffffffffff821117156101b8576101b7610161565b5b80604052505050565b60006101cb610132565b90506101d78282610190565b919050565b600067ffffffffffffffff8211156101f7576101f6610161565b5b61020082610150565b9050602081019050919050565b60005b8381101561022b578082015181840152602081019050610210565b8381111561023a576000848401525b50505050565b600061025361024e846101dc565b6101c1565b90508281526020810184848401111561026f5761026e61014b565b5b61027a84828561020d565b509392505050565b600082601f83011261029757610296610146565b5b81516102a7848260208601610240565b91505092915050565b6000602082840312156102c6576102c561013c565b5b600082015167ffffffffffffffff8111156102e4576102e3610141565b5b6102f084828501610282565b91505092915050565b7f4e487b7100000000000000000000000000000000000000000000000000000000600052602260045260246000fd5b6000600282049050600182168061034057607f821691505b60208210811415610354576103536102f9565b5b50919050565b6102d6806103696000396000f3fe608060405234801561001057600080fd5b50600436106100365760003560e01c806319ff1d211461003b57806341c0e1b514610059575b600080fd5b610043610063565b604051610050919061021d565b60405180910390f35b6100616100f5565b005b6060600180546100729061026e565b80601f016020809104026020016040519081016040528092919081815260200182805461009e9061026e565b80156100eb5780601f106100c0576101008083540402835291602001916100eb565b820191906000526020600020905b8154815290600101906020018083116100ce57829003601f168201915b5050505050905090565b60008054906101000a900473ffffffffffffffffffffffffffffffffffffffff1673ffffffffffffffffffffffffffffffffffffffff163373ffffffffffffffffffffffffffffffffffffffff1614156101825760008054906101000a900473ffffffffffffffffffffffffffffffffffffffff1673ffffffffffffffffffffffffffffffffffffffff16ff5b565b600081519050919050565b600082825260208201905092915050565b60005b838110156101be5780820151818401526020810190506101a3565b838111156101cd576000848401525b50505050565b6000601f19601f8301169050919050565b60006101ef82610184565b6101f9818561018f565b93506102098185602086016101a0565b610212816101d3565b840191505092915050565b6000602082019050818103600083015261023781846101e4565b905092915050565b7f4e487b7100000000000000000000000000000000000000000000000000000000600052602260045260246000fd5b6000600282049050600182168061028657607f821691505b6020821081141561029a5761029961023f565b5b5091905056fea2646970667358221220c68953d5365c4d60a48be28985c848fea7fdaadee65c58c997269cc76de4a59e64736f6c634300080a0033",
  "immutableReferences": {},
  "source": "pragma solidity >=0.4.22 <0.9.0;\n\ncontract mortal {\n    address payable owner;\n    constructor() public {\n        owner = payable(msg.sender);\n    }\n\n    function kill() public { if (msg.sender == owner) selfdestruct(owner); }\n}\n\ncontract greeter is mortal {\n    string greeting;\n    constructor(string memory _greeting) public {\n        greeting = _greeting;\n    }\n\n    function hello() public view returns (string memory) {\n        return greeting;\n    }\n}",
  "sourcePath": "/Users/jun/workspace/nft/mint-ruby/contracts/HelloWorld.sol",
  "compiler": {
    "name": "solc",
    "version": "0.8.10+commit.fc410830.Emscripten.clang"
  },
  "schemaVersion": "3.4.4",
  "updatedAt": "2022-01-08T08:05:11.981Z",
  "devdoc": {
    "kind": "dev",
    "methods": {},
    "version": 1
  },
  "userdoc": {
    "kind": "user",
    "methods": {},
    "version": 1
  }
}