{
  "contractName": "mortal",
  "abi": [
    {
      "inputs": [],
      "stateMutability": "nonpayable",
      "type": "constructor"
    },
    {
      "inputs": [],
      "name": "kill",
      "outputs": [],
      "stateMutability": "nonpayable",
      "type": "function"
    }
  ],
  "bytecode": "0x608060405234801561001057600080fd5b50336000806101000a81548173ffffffffffffffffffffffffffffffffffffffff021916908373ffffffffffffffffffffffffffffffffffffffff16021790555060f98061005f6000396000f3fe6080604052348015600f57600080fd5b506004361060285760003560e01c806341c0e1b514602d575b600080fd5b60336035565b005b60008054906101000a900473ffffffffffffffffffffffffffffffffffffffff1673ffffffffffffffffffffffffffffffffffffffff163373ffffffffffffffffffffffffffffffffffffffff16141560c15760008054906101000a900473ffffffffffffffffffffffffffffffffffffffff1673ffffffffffffffffffffffffffffffffffffffff16ff5b56fea26469706673582212204a84c70d4fec3308027783e3c9412a5f6880735ee86bba75b30ce2b0ee1b41be64736f6c634300080a0033",
  "immutableReferences": {},
  "source": "pragma solidity >=0.4.22 <0.9.0;\n\ncontract mortal {\n    address payable owner;\n    constructor() public {\n        owner = payable(msg.sender);\n    }\n\n    function kill() public { if (msg.sender == owner) selfdestruct(owner); }\n}\n\ncontract greeter is mortal {\n    string greeting;\n    constructor(string memory _greeting) public {\n        greeting = _greeting;\n    }\n\n    function hello() public view returns (string memory) {\n        return greeting;\n    }\n}",
  "sourcePath": "/Users/jun/workspace/nft/mint-ruby/contracts/HelloWorld.sol",
  "compiler": {
    "name": "solc",
    "version": "0.8.10+commit.fc410830.Emscripten.clang"
  },
  "schemaVersion": "3.4.4",
  "updatedAt": "2022-01-08T08:05:11.992Z",
  "devdoc": {
    "kind": "dev",
    "methods": {},
    "version": 1
  },
  "userdoc": {
    "kind": "user",
    "methods": {},
    "version": 1
  }
}