{
  "contractName": "NFT",
  "abi": [
    {
      "inputs": [
        {
          "internalType": "string",
          "name": "_name",
          "type": "string"
        },
        {
          "internalType": "string",
          "name": "_symbol",
          "type": "string"
        },
        {
          "internalType": "string",
          "name": "_initBaseURI",
          "type": "string"
        }
      ],
      "stateMutability": "nonpayable",
      "type": "constructor"
    },
    {
      "anonymous": false,
      "inputs": [
        {
          "indexed": true,
          "internalType": "address",
          "name": "owner",
          "type": "address"
        },
        {
          "indexed": true,
          "internalType": "address",
          "name": "approved",
          "type": "address"
        },
        {
          "indexed": true,
          "internalType": "uint256",
          "name": "tokenId",
          "type": "uint256"
        }
      ],
      "name": "Approval",
      "type": "event"
    },
    {
      "anonymous": false,
      "inputs": [
        {
          "indexed": true,
          "internalType": "address",
          "name": "owner",
          "type": "address"
        },
        {
          "indexed": true,
          "internalType": "address",
          "name": "operator",
          "type": "address"
        },
        {
          "indexed": false,
          "internalType": "bool",
          "name": "approved",
          "type": "bool"
        }
      ],
      "name": "ApprovalForAll",
      "type": "event"
    },
    {
      "anonymous": false,
      "inputs": [
        {
          "indexed": true,
          "internalType": "address",
          "name": "previousOwner",
          "type": "address"
        },
        {
          "indexed": true,
          "internalType": "address",
          "name": "newOwner",
          "type": "address"
        }
      ],
      "name": "OwnershipTransferred",
      "type": "event"
    },
    {
      "anonymous": false,
      "inputs": [
        {
          "indexed": true,
          "internalType": "address",
          "name": "from",
          "type": "address"
        },
        {
          "indexed": true,
          "internalType": "address",
          "name": "to",
          "type": "address"
        },
        {
          "indexed": true,
          "internalType": "uint256",
          "name": "tokenId",
          "type": "uint256"
        }
      ],
      "name": "Transfer",
      "type": "event"
    },
    {
      "inputs": [
        {
          "internalType": "address",
          "name": "to",
          "type": "address"
        },
        {
          "internalType": "uint256",
          "name": "tokenId",
          "type": "uint256"
        }
      ],
      "name": "approve",
      "outputs": [],
      "stateMutability": "nonpayable",
      "type": "function"
    },
    {
      "inputs": [
        {
          "internalType": "address",
          "name": "owner",
          "type": "address"
        }
      ],
      "name": "balanceOf",
      "outputs": [
        {
          "internalType": "uint256",
          "name": "",
          "type": "uint256"
        }
      ],
      "stateMutability": "view",
      "type": "function",
      "constant": true
    },
    {
      "inputs": [],
      "name": "baseExtension",
      "outputs": [
        {
          "internalType": "string",
          "name": "",
          "type": "string"
        }
      ],
      "stateMutability": "view",
      "type": "function",
      "constant": true
    },
    {
      "inputs": [],
      "name": "cost",
      "outputs": [
        {
          "internalType": "uint256",
          "name": "",
          "type": "uint256"
        }
      ],
      "stateMutability": "view",
      "type": "function",
      "constant": true
    },
    {
      "inputs": [
        {
          "internalType": "uint256",
          "name": "tokenId",
          "type": "uint256"
        }
      ],
      "name": "getApproved",
      "outputs": [
        {
          "internalType": "address",
          "name": "",
          "type": "address"
        }
      ],
      "stateMutability": "view",
      "type": "function",
      "constant": true
    },
    {
      "inputs": [
        {
          "internalType": "address",
          "name": "owner",
          "type": "address"
        },
        {
          "internalType": "address",
          "name": "operator",
          "type": "address"
        }
      ],
      "name": "isApprovedForAll",
      "outputs": [
        {
          "internalType": "bool",
          "name": "",
          "type": "bool"
        }
      ],
      "stateMutability": "view",
      "type": "function",
      "constant": true
    },
    {
      "inputs": [],
      "name": "maxSupply",
      "outputs": [
        {
          "internalType": "uint256",
          "name": "",
          "type": "uint256"
        }
      ],
      "stateMutability": "view",
      "type": "function",
      "constant": true
    },
    {
      "inputs": [],
      "name": "name",
      "outputs": [
        {
          "internalType": "string",
          "name": "",
          "type": "string"
        }
      ],
      "stateMutability": "view",
      "type": "function",
      "constant": true
    },
    {
      "inputs": [],
      "name": "owner",
      "outputs": [
        {
          "internalType": "address",
          "name": "",
          "type": "address"
        }
      ],
      "stateMutability": "view",
      "type": "function",
      "constant": true
    },
    {
      "inputs": [
        {
          "internalType": "uint256",
          "name": "tokenId",
          "type": "uint256"
        }
      ],
      "name": "ownerOf",
      "outputs": [
        {
          "internalType": "address",
          "name": "",
          "type": "address"
        }
      ],
      "stateMutability": "view",
      "type": "function",
      "constant": true
    },
    {
      "inputs": [],
      "name": "renounceOwnership",
      "outputs": [],
      "stateMutability": "nonpayable",
      "type": "function"
    },
    {
      "inputs": [
        {
          "internalType": "address",
          "name": "from",
          "type": "address"
        },
        {
          "internalType": "address",
          "name": "to",
          "type": "address"
        },
        {
          "internalType": "uint256",
          "name": "tokenId",
          "type": "uint256"
        }
      ],
      "name": "safeTransferFrom",
      "outputs": [],
      "stateMutability": "nonpayable",
      "type": "function"
    },
    {
      "inputs": [
        {
          "internalType": "address",
          "name": "from",
          "type": "address"
        },
        {
          "internalType": "address",
          "name": "to",
          "type": "address"
        },
        {
          "internalType": "uint256",
          "name": "tokenId",
          "type": "uint256"
        },
        {
          "internalType": "bytes",
          "name": "_data",
          "type": "bytes"
        }
      ],
      "name": "safeTransferFrom",
      "outputs": [],
      "stateMutability": "nonpayable",
      "type": "function"
    },
    {
      "inputs": [
        {
          "internalType": "address",
          "name": "operator",
          "type": "address"
        },
        {
          "internalType": "bool",
          "name": "approved",
          "type": "bool"
        }
      ],
      "name": "setApprovalForAll",
      "outputs": [],
      "stateMutability": "nonpayable",
      "type": "function"
    },
    {
      "inputs": [
        {
          "internalType": "bytes4",
          "name": "interfaceId",
          "type": "bytes4"
        }
      ],
      "name": "supportsInterface",
      "outputs": [
        {
          "internalType": "bool",
          "name": "",
          "type": "bool"
        }
      ],
      "stateMutability": "view",
      "type": "function",
      "constant": true
    },
    {
      "inputs": [],
      "name": "symbol",
      "outputs": [
        {
          "internalType": "string",
          "name": "",
          "type": "string"
        }
      ],
      "stateMutability": "view",
      "type": "function",
      "constant": true
    },
    {
      "inputs": [
        {
          "internalType": "uint256",
          "name": "index",
          "type": "uint256"
        }
      ],
      "name": "tokenByIndex",
      "outputs": [
        {
          "internalType": "uint256",
          "name": "",
          "type": "uint256"
        }
      ],
      "stateMutability": "view",
      "type": "function",
      "constant": true
    },
    {
      "inputs": [
        {
          "internalType": "address",
          "name": "owner",
          "type": "address"
        },
        {
          "internalType": "uint256",
          "name": "index",
          "type": "uint256"
        }
      ],
      "name": "tokenOfOwnerByIndex",
      "outputs": [
        {
          "internalType": "uint256",
          "name": "",
          "type": "uint256"
        }
      ],
      "stateMutability": "view",
      "type": "function",
      "constant": true
    },
    {
      "inputs": [],
      "name": "totalSupply",
      "outputs": [
        {
          "internalType": "uint256",
          "name": "",
          "type": "uint256"
        }
      ],
      "stateMutability": "view",
      "type": "function",
      "constant": true
    },
    {
      "inputs": [
        {
          "internalType": "address",
          "name": "from",
          "type": "address"
        },
        {
          "internalType": "address",
          "name": "to",
          "type": "address"
        },
        {
          "internalType": "uint256",
          "name": "tokenId",
          "type": "uint256"
        }
      ],
      "name": "transferFrom",
      "outputs": [],
      "stateMutability": "nonpayable",
      "type": "function"
    },
    {
      "inputs": [
        {
          "internalType": "address",
          "name": "newOwner",
          "type": "address"
        }
      ],
      "name": "transferOwnership",
      "outputs": [],
      "stateMutability": "nonpayable",
      "type": "function"
    },
    {
      "inputs": [],
      "name": "mint",
      "outputs": [],
      "stateMutability": "payable",
      "type": "function",
      "payable": true
    },
    {
      "inputs": [
        {
          "internalType": "address",
          "name": "_owner",
          "type": "address"
        }
      ],
      "name": "walletOfOwner",
      "outputs": [
        {
          "internalType": "uint256[]",
          "name": "",
          "type": "uint256[]"
        }
      ],
      "stateMutability": "view",
      "type": "function",
      "constant": true
    },
    {
      "inputs": [
        {
          "internalType": "uint256",
          "name": "tokenId",
          "type": "uint256"
        }
      ],
      "name": "tokenURI",
      "outputs": [
        {
          "internalType": "string",
          "name": "",
          "type": "string"
        }
      ],
      "stateMutability": "view",
      "type": "function",
      "constant": true
    },
    {
      "inputs": [
        {
          "internalType": "uint256",
          "name": "_newCost",
          "type": "uint256"
        }
      ],
      "name": "setCost",
      "outputs": [],
      "stateMutability": "nonpayable",
      "type": "function"
    },
    {
      "inputs": [
        {
          "internalType": "string",
          "name": "_newBaseURI",
          "type": "string"
        }
      ],
      "name": "setBaseURI",
      "outputs": [],
      "stateMutability": "nonpayable",
      "type": "function"
    },
    {
      "inputs": [],
      "name": "withdraw",
      "outputs": [],
      "stateMutability": "payable",
      "type": "function",
      "payable": true
    }
  ],
  "bytecode": "0x60806040526040518060400160405280600581526020017f2e6a736f6e000000000000000000000000000000000000000000000000000000815250600c90805190602001906200005192919062000274565b50670de0b6b3a7640000600d556014600e553480156200007057600080fd5b50604051620043bc380380620043bc8339818101604052810190620000969190620004c1565b82828160009080519060200190620000b092919062000274565b508060019080519060200190620000c992919062000274565b5050506000620000de6200019760201b60201c565b905080600a60006101000a81548173ffffffffffffffffffffffffffffffffffffffff021916908373ffffffffffffffffffffffffffffffffffffffff1602179055508073ffffffffffffffffffffffffffffffffffffffff16600073ffffffffffffffffffffffffffffffffffffffff167f8be0079c531659141344cd1fd0a4f28419497f9722a3daafe3b4186f6b6457e060405160405180910390a3506200018e816200019f60201b60201c565b50505062000662565b600033905090565b620001af6200019760201b60201c565b73ffffffffffffffffffffffffffffffffffffffff16620001d56200024a60201b60201c565b73ffffffffffffffffffffffffffffffffffffffff16146200022e576040517f08c379a00000000000000000000000000000000000000000000000000000000081526004016200022590620005db565b60405180910390fd5b80600b90805190602001906200024692919062000274565b5050565b6000600a60009054906101000a900473ffffffffffffffffffffffffffffffffffffffff16905090565b82805462000282906200062c565b90600052602060002090601f016020900481019282620002a65760008555620002f2565b82601f10620002c157805160ff1916838001178555620002f2565b82800160010185558215620002f2579182015b82811115620002f1578251825591602001919060010190620002d4565b5b50905062000301919062000305565b5090565b5b808211156200032057600081600090555060010162000306565b5090565b6000604051905090565b600080fd5b600080fd5b600080fd5b600080fd5b6000601f19601f8301169050919050565b7f4e487b7100000000000000000000000000000000000000000000000000000000600052604160045260246000fd5b6200038d8262000342565b810181811067ffffffffffffffff82111715620003af57620003ae62000353565b5b80604052505050565b6000620003c462000324565b9050620003d2828262000382565b919050565b600067ffffffffffffffff821115620003f557620003f462000353565b5b620004008262000342565b9050602081019050919050565b60005b838110156200042d57808201518184015260208101905062000410565b838111156200043d576000848401525b50505050565b60006200045a6200045484620003d7565b620003b8565b9050828152602081018484840111156200047957620004786200033d565b5b620004868482856200040d565b509392505050565b600082601f830112620004a657620004a562000338565b5b8151620004b884826020860162000443565b91505092915050565b600080600060608486031215620004dd57620004dc6200032e565b5b600084015167ffffffffffffffff811115620004fe57620004fd62000333565b5b6200050c868287016200048e565b935050602084015167ffffffffffffffff81111562000530576200052f62000333565b5b6200053e868287016200048e565b925050604084015167ffffffffffffffff81111562000562576200056162000333565b5b62000570868287016200048e565b9150509250925092565b600082825260208201905092915050565b7f4f776e61626c653a2063616c6c6572206973206e6f7420746865206f776e6572600082015250565b6000620005c36020836200057a565b9150620005d0826200058b565b602082019050919050565b60006020820190508181036000830152620005f681620005b4565b9050919050565b7f4e487b7100000000000000000000000000000000000000000000000000000000600052602260045260246000fd5b600060028204905060018216806200064557607f821691505b602082108114156200065c576200065b620005fd565b5b50919050565b613d4a80620006726000396000f3fe60806040526004361061019c5760003560e01c80634f6ccce7116100ec578063a22cb4651161008a578063c87b56dd11610064578063c87b56dd14610598578063d5abeb01146105d5578063e985e9c514610600578063f2fde38b1461063d5761019c565b8063a22cb4651461051b578063b88d4fde14610544578063c66828621461056d5761019c565b806370a08231116100c657806370a0823114610471578063715018a6146104ae5780638da5cb5b146104c557806395d89b41146104f05761019c565b80634f6ccce7146103ce57806355f804b31461040b5780636352211e146104345761019c565b806318160ddd116101595780633ccfd60b116101335780633ccfd60b1461033557806342842e0e1461033f578063438b63001461036857806344a0d68a146103a55761019c565b806318160ddd146102a457806323b872dd146102cf5780632f745c59146102f85761019c565b806301ffc9a7146101a157806306fdde03146101de578063081812fc14610209578063095ea7b3146102465780631249c58b1461026f57806313faede614610279575b600080fd5b3480156101ad57600080fd5b506101c860048036038101906101c391906127cb565b610666565b6040516101d59190612813565b60405180910390f35b3480156101ea57600080fd5b506101f36106e0565b60405161020091906128c7565b60405180910390f35b34801561021557600080fd5b50610230600480360381019061022b919061291f565b610772565b60405161023d919061298d565b60405180910390f35b34801561025257600080fd5b5061026d600480360381019061026891906129d4565b6107f7565b005b61027761090f565b005b34801561028557600080fd5b5061028e61098d565b60405161029b9190612a23565b60405180910390f35b3480156102b057600080fd5b506102b9610993565b6040516102c69190612a23565b60405180910390f35b3480156102db57600080fd5b506102f660048036038101906102f19190612a3e565b6109a0565b005b34801561030457600080fd5b5061031f600480360381019061031a91906129d4565b610a00565b60405161032c9190612a23565b60405180910390f35b61033d610aa5565b005b34801561034b57600080fd5b5061036660048036038101906103619190612a3e565b610b9a565b005b34801561037457600080fd5b5061038f600480360381019061038a9190612a91565b610bba565b60405161039c9190612b7c565b60405180910390f35b3480156103b157600080fd5b506103cc60048036038101906103c7919061291f565b610c68565b005b3480156103da57600080fd5b506103f560048036038101906103f0919061291f565b610cee565b6040516104029190612a23565b60405180910390f35b34801561041757600080fd5b50610432600480360381019061042d9190612cd3565b610d5f565b005b34801561044057600080fd5b5061045b6004803603810190610456919061291f565b610df5565b604051610468919061298d565b60405180910390f35b34801561047d57600080fd5b5061049860048036038101906104939190612a91565b610ea7565b6040516104a59190612a23565b60405180910390f35b3480156104ba57600080fd5b506104c3610f5f565b005b3480156104d157600080fd5b506104da61109c565b6040516104e7919061298d565b60405180910390f35b3480156104fc57600080fd5b506105056110c6565b60405161051291906128c7565b60405180910390f35b34801561052757600080fd5b50610542600480360381019061053d9190612d48565b611158565b005b34801561055057600080fd5b5061056b60048036038101906105669190612e29565b6112d9565b005b34801561057957600080fd5b5061058261133b565b60405161058f91906128c7565b60405180910390f35b3480156105a457600080fd5b506105bf60048036038101906105ba919061291f565b6113c9565b6040516105cc91906128c7565b60405180910390f35b3480156105e157600080fd5b506105ea611473565b6040516105f79190612a23565b60405180910390f35b34801561060c57600080fd5b5061062760048036038101906106229190612eac565b611479565b6040516106349190612813565b60405180910390f35b34801561064957600080fd5b50610664600480360381019061065f9190612a91565b61150d565b005b60007f780e9d63000000000000000000000000000000000000000000000000000000007bffffffffffffffffffffffffffffffffffffffffffffffffffffffff1916827bffffffffffffffffffffffffffffffffffffffffffffffffffffffff191614806106d957506106d8826116b9565b5b9050919050565b6060600080546106ef90612f1b565b80601f016020809104026020016040519081016040528092919081815260200182805461071b90612f1b565b80156107685780601f1061073d57610100808354040283529160200191610768565b820191906000526020600020905b81548152906001019060200180831161074b57829003601f168201915b5050505050905090565b600061077d8261179b565b6107bc576040517f08c379a00000000000000000000000000000000000000000000000000000000081526004016107b390612fbf565b60405180910390fd5b6004600083815260200190815260200160002060009054906101000a900473ffffffffffffffffffffffffffffffffffffffff169050919050565b600061080282610df5565b90508073ffffffffffffffffffffffffffffffffffffffff168373ffffffffffffffffffffffffffffffffffffffff161415610873576040517f08c379a000000000000000000000000000000000000000000000000000000000815260040161086a90613051565b60405180910390fd5b8073ffffffffffffffffffffffffffffffffffffffff16610892611807565b73ffffffffffffffffffffffffffffffffffffffff1614806108c157506108c0816108bb611807565b611479565b5b610900576040517f08c379a00000000000000000000000000000000000000000000000000000000081526004016108f7906130e3565b60405180910390fd5b61090a838361180f565b505050565b6000610919610993565b9050600e5481111561092a57600080fd5b61093261109c565b73ffffffffffffffffffffffffffffffffffffffff163373ffffffffffffffffffffffffffffffffffffffff161461097457600d5434101561097357600080fd5b5b61098a336001836109859190613132565b6118c8565b50565b600d5481565b6000600880549050905090565b6109b16109ab611807565b826118e6565b6109f0576040517f08c379a00000000000000000000000000000000000000000000000000000000081526004016109e7906131fa565b60405180910390fd5b6109fb8383836119c4565b505050565b6000610a0b83610ea7565b8210610a4c576040517f08c379a0000000000000000000000000000000000000000000000000000000008152600401610a439061328c565b60405180910390fd5b600660008473ffffffffffffffffffffffffffffffffffffffff1673ffffffffffffffffffffffffffffffffffffffff168152602001908152602001600020600083815260200190815260200160002054905092915050565b610aad611807565b73ffffffffffffffffffffffffffffffffffffffff16610acb61109c565b73ffffffffffffffffffffffffffffffffffffffff1614610b21576040517f08c379a0000000000000000000000000000000000000000000000000000000008152600401610b18906132f8565b60405180910390fd5b60003373ffffffffffffffffffffffffffffffffffffffff1647604051610b4790613349565b60006040518083038185875af1925050503d8060008114610b84576040519150601f19603f3d011682016040523d82523d6000602084013e610b89565b606091505b5050905080610b9757600080fd5b50565b610bb5838383604051806020016040528060008152506112d9565b505050565b60606000610bc783610ea7565b905060008167ffffffffffffffff811115610be557610be4612ba8565b5b604051908082528060200260200182016040528015610c135781602001602082028036833780820191505090505b50905060005b82811015610c5d57610c2b8582610a00565b828281518110610c3e57610c3d61335e565b5b6020026020010181815250508080610c559061338d565b915050610c19565b508092505050919050565b610c70611807565b73ffffffffffffffffffffffffffffffffffffffff16610c8e61109c565b73ffffffffffffffffffffffffffffffffffffffff1614610ce4576040517f08c379a0000000000000000000000000000000000000000000000000000000008152600401610cdb906132f8565b60405180910390fd5b80600d8190555050565b6000610cf8610993565b8210610d39576040517f08c379a0000000000000000000000000000000000000000000000000000000008152600401610d3090613448565b60405180910390fd5b60088281548110610d4d57610d4c61335e565b5b90600052602060002001549050919050565b610d67611807565b73ffffffffffffffffffffffffffffffffffffffff16610d8561109c565b73ffffffffffffffffffffffffffffffffffffffff1614610ddb576040517f08c379a0000000000000000000000000000000000000000000000000000000008152600401610dd2906132f8565b60405180910390fd5b80600b9080519060200190610df19291906126bc565b5050565b6000806002600084815260200190815260200160002060009054906101000a900473ffffffffffffffffffffffffffffffffffffffff169050600073ffffffffffffffffffffffffffffffffffffffff168173ffffffffffffffffffffffffffffffffffffffff161415610e9e576040517f08c379a0000000000000000000000000000000000000000000000000000000008152600401610e95906134da565b60405180910390fd5b80915050919050565b60008073ffffffffffffffffffffffffffffffffffffffff168273ffffffffffffffffffffffffffffffffffffffff161415610f18576040517f08c379a0000000000000000000000000000000000000000000000000000000008152600401610f0f9061356c565b60405180910390fd5b600360008373ffffffffffffffffffffffffffffffffffffffff1673ffffffffffffffffffffffffffffffffffffffff168152602001908152602001600020549050919050565b610f67611807565b73ffffffffffffffffffffffffffffffffffffffff16610f8561109c565b73ffffffffffffffffffffffffffffffffffffffff1614610fdb576040517f08c379a0000000000000000000000000000000000000000000000000000000008152600401610fd2906132f8565b60405180910390fd5b600073ffffffffffffffffffffffffffffffffffffffff16600a60009054906101000a900473ffffffffffffffffffffffffffffffffffffffff1673ffffffffffffffffffffffffffffffffffffffff167f8be0079c531659141344cd1fd0a4f28419497f9722a3daafe3b4186f6b6457e060405160405180910390a36000600a60006101000a81548173ffffffffffffffffffffffffffffffffffffffff021916908373ffffffffffffffffffffffffffffffffffffffff160217905550565b6000600a60009054906101000a900473ffffffffffffffffffffffffffffffffffffffff16905090565b6060600180546110d590612f1b565b80601f016020809104026020016040519081016040528092919081815260200182805461110190612f1b565b801561114e5780601f106111235761010080835404028352916020019161114e565b820191906000526020600020905b81548152906001019060200180831161113157829003601f168201915b5050505050905090565b611160611807565b73ffffffffffffffffffffffffffffffffffffffff168273ffffffffffffffffffffffffffffffffffffffff1614156111ce576040517f08c379a00000000000000000000000000000000000000000000000000000000081526004016111c5906135d8565b60405180910390fd5b80600560006111db611807565b73ffffffffffffffffffffffffffffffffffffffff1673ffffffffffffffffffffffffffffffffffffffff16815260200190815260200160002060008473ffffffffffffffffffffffffffffffffffffffff1673ffffffffffffffffffffffffffffffffffffffff16815260200190815260200160002060006101000a81548160ff0219169083151502179055508173ffffffffffffffffffffffffffffffffffffffff16611288611807565b73ffffffffffffffffffffffffffffffffffffffff167f17307eab39ab6107e8899845ad3d59bd9653f200f220920489ca2b5937696c31836040516112cd9190612813565b60405180910390a35050565b6112ea6112e4611807565b836118e6565b611329576040517f08c379a0000000000000000000000000000000000000000000000000000000008152600401611320906131fa565b60405180910390fd5b61133584848484611c20565b50505050565b600c805461134890612f1b565b80601f016020809104026020016040519081016040528092919081815260200182805461137490612f1b565b80156113c15780601f10611396576101008083540402835291602001916113c1565b820191906000526020600020905b8154815290600101906020018083116113a457829003601f168201915b505050505081565b60606113d48261179b565b611413576040517f08c379a000000000000000000000000000000000000000000000000000000000815260040161140a9061366a565b60405180910390fd5b600061141d611c7c565b9050600081511161143d576040518060200160405280600081525061146b565b8061144784611d0e565b600c60405160200161145b9392919061375a565b6040516020818303038152906040525b915050919050565b600e5481565b6000600560008473ffffffffffffffffffffffffffffffffffffffff1673ffffffffffffffffffffffffffffffffffffffff16815260200190815260200160002060008373ffffffffffffffffffffffffffffffffffffffff1673ffffffffffffffffffffffffffffffffffffffff16815260200190815260200160002060009054906101000a900460ff16905092915050565b611515611807565b73ffffffffffffffffffffffffffffffffffffffff1661153361109c565b73ffffffffffffffffffffffffffffffffffffffff1614611589576040517f08c379a0000000000000000000000000000000000000000000000000000000008152600401611580906132f8565b60405180910390fd5b600073ffffffffffffffffffffffffffffffffffffffff168173ffffffffffffffffffffffffffffffffffffffff1614156115f9576040517f08c379a00000000000000000000000000000000000000000000000000000000081526004016115f0906137fd565b60405180910390fd5b8073ffffffffffffffffffffffffffffffffffffffff16600a60009054906101000a900473ffffffffffffffffffffffffffffffffffffffff1673ffffffffffffffffffffffffffffffffffffffff167f8be0079c531659141344cd1fd0a4f28419497f9722a3daafe3b4186f6b6457e060405160405180910390a380600a60006101000a81548173ffffffffffffffffffffffffffffffffffffffff021916908373ffffffffffffffffffffffffffffffffffffffff16021790555050565b60007f80ac58cd000000000000000000000000000000000000000000000000000000007bffffffffffffffffffffffffffffffffffffffffffffffffffffffff1916827bffffffffffffffffffffffffffffffffffffffffffffffffffffffff1916148061178457507f5b5e139f000000000000000000000000000000000000000000000000000000007bffffffffffffffffffffffffffffffffffffffffffffffffffffffff1916827bffffffffffffffffffffffffffffffffffffffffffffffffffffffff1916145b80611794575061179382611e6f565b5b9050919050565b60008073ffffffffffffffffffffffffffffffffffffffff166002600084815260200190815260200160002060009054906101000a900473ffffffffffffffffffffffffffffffffffffffff1673ffffffffffffffffffffffffffffffffffffffff1614159050919050565b600033905090565b816004600083815260200190815260200160002060006101000a81548173ffffffffffffffffffffffffffffffffffffffff021916908373ffffffffffffffffffffffffffffffffffffffff160217905550808273ffffffffffffffffffffffffffffffffffffffff1661188283610df5565b73ffffffffffffffffffffffffffffffffffffffff167f8c5be1e5ebec7d5bd14f71427d1e84f3dd0314c0f7b2291e5b200ac8c7c3b92560405160405180910390a45050565b6118e2828260405180602001604052806000815250611ed9565b5050565b60006118f18261179b565b611930576040517f08c379a00000000000000000000000000000000000000000000000000000000081526004016119279061388f565b60405180910390fd5b600061193b83610df5565b90508073ffffffffffffffffffffffffffffffffffffffff168473ffffffffffffffffffffffffffffffffffffffff1614806119aa57508373ffffffffffffffffffffffffffffffffffffffff1661199284610772565b73ffffffffffffffffffffffffffffffffffffffff16145b806119bb57506119ba8185611479565b5b91505092915050565b8273ffffffffffffffffffffffffffffffffffffffff166119e482610df5565b73ffffffffffffffffffffffffffffffffffffffff1614611a3a576040517f08c379a0000000000000000000000000000000000000000000000000000000008152600401611a3190613921565b60405180910390fd5b600073ffffffffffffffffffffffffffffffffffffffff168273ffffffffffffffffffffffffffffffffffffffff161415611aaa576040517f08c379a0000000000000000000000000000000000000000000000000000000008152600401611aa1906139b3565b60405180910390fd5b611ab5838383611f34565b611ac060008261180f565b6001600360008573ffffffffffffffffffffffffffffffffffffffff1673ffffffffffffffffffffffffffffffffffffffff1681526020019081526020016000206000828254611b1091906139d3565b925050819055506001600360008473ffffffffffffffffffffffffffffffffffffffff1673ffffffffffffffffffffffffffffffffffffffff1681526020019081526020016000206000828254611b679190613132565b92505081905550816002600083815260200190815260200160002060006101000a81548173ffffffffffffffffffffffffffffffffffffffff021916908373ffffffffffffffffffffffffffffffffffffffff160217905550808273ffffffffffffffffffffffffffffffffffffffff168473ffffffffffffffffffffffffffffffffffffffff167fddf252ad1be2c89b69c2b068fc378daa952ba7f163c4a11628f55a4df523b3ef60405160405180910390a4505050565b611c2b8484846119c4565b611c3784848484612048565b611c76576040517f08c379a0000000000000000000000000000000000000000000000000000000008152600401611c6d90613a79565b60405180910390fd5b50505050565b6060600b8054611c8b90612f1b565b80601f0160208091040260200160405190810160405280929190818152602001828054611cb790612f1b565b8015611d045780601f10611cd957610100808354040283529160200191611d04565b820191906000526020600020905b815481529060010190602001808311611ce757829003601f168201915b5050505050905090565b60606000821415611d56576040518060400160405280600181526020017f30000000000000000000000000000000000000000000000000000000000000008152509050611e6a565b600082905060005b60008214611d88578080611d719061338d565b915050600a82611d819190613ac8565b9150611d5e565b60008167ffffffffffffffff811115611da457611da3612ba8565b5b6040519080825280601f01601f191660200182016040528015611dd65781602001600182028036833780820191505090505b5090505b60008514611e6357600182611def91906139d3565b9150600a85611dfe9190613af9565b6030611e0a9190613132565b60f81b818381518110611e2057611e1f61335e565b5b60200101907effffffffffffffffffffffffffffffffffffffffffffffffffffffffffffff1916908160001a905350600a85611e5c9190613ac8565b9450611dda565b8093505050505b919050565b60007f01ffc9a7000000000000000000000000000000000000000000000000000000007bffffffffffffffffffffffffffffffffffffffffffffffffffffffff1916827bffffffffffffffffffffffffffffffffffffffffffffffffffffffff1916149050919050565b611ee383836121d0565b611ef06000848484612048565b611f2f576040517f08c379a0000000000000000000000000000000000000000000000000000000008152600401611f2690613a79565b60405180910390fd5b505050565b611f3f83838361239e565b600073ffffffffffffffffffffffffffffffffffffffff168373ffffffffffffffffffffffffffffffffffffffff161415611f8257611f7d816123a3565b611fc1565b8173ffffffffffffffffffffffffffffffffffffffff168373ffffffffffffffffffffffffffffffffffffffff1614611fc057611fbf83826123ec565b5b5b600073ffffffffffffffffffffffffffffffffffffffff168273ffffffffffffffffffffffffffffffffffffffff16141561200457611fff81612559565b612043565b8273ffffffffffffffffffffffffffffffffffffffff168273ffffffffffffffffffffffffffffffffffffffff161461204257612041828261262a565b5b5b505050565b60006120698473ffffffffffffffffffffffffffffffffffffffff166126a9565b156121c3578373ffffffffffffffffffffffffffffffffffffffff1663150b7a02612092611807565b8786866040518563ffffffff1660e01b81526004016120b49493929190613b7f565b6020604051808303816000875af19250505080156120f057506040513d601f19601f820116820180604052508101906120ed9190613be0565b60015b612173573d8060008114612120576040519150601f19603f3d011682016040523d82523d6000602084013e612125565b606091505b5060008151141561216b576040517f08c379a000000000000000000000000000000000000000000000000000000000815260040161216290613a79565b60405180910390fd5b805181602001fd5b63150b7a0260e01b7bffffffffffffffffffffffffffffffffffffffffffffffffffffffff1916817bffffffffffffffffffffffffffffffffffffffffffffffffffffffff1916149150506121c8565b600190505b949350505050565b600073ffffffffffffffffffffffffffffffffffffffff168273ffffffffffffffffffffffffffffffffffffffff161415612240576040517f08c379a000000000000000000000000000000000000000000000000000000000815260040161223790613c59565b60405180910390fd5b6122498161179b565b15612289576040517f08c379a000000000000000000000000000000000000000000000000000000000815260040161228090613cc5565b60405180910390fd5b61229560008383611f34565b6001600360008473ffffffffffffffffffffffffffffffffffffffff1673ffffffffffffffffffffffffffffffffffffffff16815260200190815260200160002060008282546122e59190613132565b92505081905550816002600083815260200190815260200160002060006101000a81548173ffffffffffffffffffffffffffffffffffffffff021916908373ffffffffffffffffffffffffffffffffffffffff160217905550808273ffffffffffffffffffffffffffffffffffffffff16600073ffffffffffffffffffffffffffffffffffffffff167fddf252ad1be2c89b69c2b068fc378daa952ba7f163c4a11628f55a4df523b3ef60405160405180910390a45050565b505050565b6008805490506009600083815260200190815260200160002081905550600881908060018154018082558091505060019003906000526020600020016000909190919091505550565b600060016123f984610ea7565b61240391906139d3565b90506000600760008481526020019081526020016000205490508181146124e8576000600660008673ffffffffffffffffffffffffffffffffffffffff1673ffffffffffffffffffffffffffffffffffffffff168152602001908152602001600020600084815260200190815260200160002054905080600660008773ffffffffffffffffffffffffffffffffffffffff1673ffffffffffffffffffffffffffffffffffffffff168152602001908152602001600020600084815260200190815260200160002081905550816007600083815260200190815260200160002081905550505b6007600084815260200190815260200160002060009055600660008573ffffffffffffffffffffffffffffffffffffffff1673ffffffffffffffffffffffffffffffffffffffff16815260200190815260200160002060008381526020019081526020016000206000905550505050565b6000600160088054905061256d91906139d3565b905060006009600084815260200190815260200160002054905060006008838154811061259d5761259c61335e565b5b9060005260206000200154905080600883815481106125bf576125be61335e565b5b90600052602060002001819055508160096000838152602001908152602001600020819055506009600085815260200190815260200160002060009055600880548061260e5761260d613ce5565b5b6001900381819060005260206000200160009055905550505050565b600061263583610ea7565b905081600660008573ffffffffffffffffffffffffffffffffffffffff1673ffffffffffffffffffffffffffffffffffffffff168152602001908152602001600020600083815260200190815260200160002081905550806007600084815260200190815260200160002081905550505050565b600080823b905060008111915050919050565b8280546126c890612f1b565b90600052602060002090601f0160209004810192826126ea5760008555612731565b82601f1061270357805160ff1916838001178555612731565b82800160010185558215612731579182015b82811115612730578251825591602001919060010190612715565b5b50905061273e9190612742565b5090565b5b8082111561275b576000816000905550600101612743565b5090565b6000604051905090565b600080fd5b600080fd5b60007fffffffff0000000000000000000000000000000000000000000000000000000082169050919050565b6127a881612773565b81146127b357600080fd5b50565b6000813590506127c58161279f565b92915050565b6000602082840312156127e1576127e0612769565b5b60006127ef848285016127b6565b91505092915050565b60008115159050919050565b61280d816127f8565b82525050565b60006020820190506128286000830184612804565b92915050565b600081519050919050565b600082825260208201905092915050565b60005b8381101561286857808201518184015260208101905061284d565b83811115612877576000848401525b50505050565b6000601f19601f8301169050919050565b60006128998261282e565b6128a38185612839565b93506128b381856020860161284a565b6128bc8161287d565b840191505092915050565b600060208201905081810360008301526128e1818461288e565b905092915050565b6000819050919050565b6128fc816128e9565b811461290757600080fd5b50565b600081359050612919816128f3565b92915050565b60006020828403121561293557612934612769565b5b60006129438482850161290a565b91505092915050565b600073ffffffffffffffffffffffffffffffffffffffff82169050919050565b60006129778261294c565b9050919050565b6129878161296c565b82525050565b60006020820190506129a2600083018461297e565b92915050565b6129b18161296c565b81146129bc57600080fd5b50565b6000813590506129ce816129a8565b92915050565b600080604083850312156129eb576129ea612769565b5b60006129f9858286016129bf565b9250506020612a0a8582860161290a565b9150509250929050565b612a1d816128e9565b82525050565b6000602082019050612a386000830184612a14565b92915050565b600080600060608486031215612a5757612a56612769565b5b6000612a65868287016129bf565b9350506020612a76868287016129bf565b9250506040612a878682870161290a565b9150509250925092565b600060208284031215612aa757612aa6612769565b5b6000612ab5848285016129bf565b91505092915050565b600081519050919050565b600082825260208201905092915050565b6000819050602082019050919050565b612af3816128e9565b82525050565b6000612b058383612aea565b60208301905092915050565b6000602082019050919050565b6000612b2982612abe565b612b338185612ac9565b9350612b3e83612ada565b8060005b83811015612b6f578151612b568882612af9565b9750612b6183612b11565b925050600181019050612b42565b5085935050505092915050565b60006020820190508181036000830152612b968184612b1e565b905092915050565b600080fd5b600080fd5b7f4e487b7100000000000000000000000000000000000000000000000000000000600052604160045260246000fd5b612be08261287d565b810181811067ffffffffffffffff82111715612bff57612bfe612ba8565b5b80604052505050565b6000612c1261275f565b9050612c1e8282612bd7565b919050565b600067ffffffffffffffff821115612c3e57612c3d612ba8565b5b612c478261287d565b9050602081019050919050565b82818337600083830152505050565b6000612c76612c7184612c23565b612c08565b905082815260208101848484011115612c9257612c91612ba3565b5b612c9d848285612c54565b509392505050565b600082601f830112612cba57612cb9612b9e565b5b8135612cca848260208601612c63565b91505092915050565b600060208284031215612ce957612ce8612769565b5b600082013567ffffffffffffffff811115612d0757612d0661276e565b5b612d1384828501612ca5565b91505092915050565b612d25816127f8565b8114612d3057600080fd5b50565b600081359050612d4281612d1c565b92915050565b60008060408385031215612d5f57612d5e612769565b5b6000612d6d858286016129bf565b9250506020612d7e85828601612d33565b9150509250929050565b600067ffffffffffffffff821115612da357612da2612ba8565b5b612dac8261287d565b9050602081019050919050565b6000612dcc612dc784612d88565b612c08565b905082815260208101848484011115612de857612de7612ba3565b5b612df3848285612c54565b509392505050565b600082601f830112612e1057612e0f612b9e565b5b8135612e20848260208601612db9565b91505092915050565b60008060008060808587031215612e4357612e42612769565b5b6000612e51878288016129bf565b9450506020612e62878288016129bf565b9350506040612e738782880161290a565b925050606085013567ffffffffffffffff811115612e9457612e9361276e565b5b612ea087828801612dfb565b91505092959194509250565b60008060408385031215612ec357612ec2612769565b5b6000612ed1858286016129bf565b9250506020612ee2858286016129bf565b9150509250929050565b7f4e487b7100000000000000000000000000000000000000000000000000000000600052602260045260246000fd5b60006002820490506001821680612f3357607f821691505b60208210811415612f4757612f46612eec565b5b50919050565b7f4552433732313a20617070726f76656420717565727920666f72206e6f6e657860008201527f697374656e7420746f6b656e0000000000000000000000000000000000000000602082015250565b6000612fa9602c83612839565b9150612fb482612f4d565b604082019050919050565b60006020820190508181036000830152612fd881612f9c565b9050919050565b7f4552433732313a20617070726f76616c20746f2063757272656e74206f776e6560008201527f7200000000000000000000000000000000000000000000000000000000000000602082015250565b600061303b602183612839565b915061304682612fdf565b604082019050919050565b6000602082019050818103600083015261306a8161302e565b9050919050565b7f4552433732313a20617070726f76652063616c6c6572206973206e6f74206f7760008201527f6e6572206e6f7220617070726f76656420666f7220616c6c0000000000000000602082015250565b60006130cd603883612839565b91506130d882613071565b604082019050919050565b600060208201905081810360008301526130fc816130c0565b9050919050565b7f4e487b7100000000000000000000000000000000000000000000000000000000600052601160045260246000fd5b600061313d826128e9565b9150613148836128e9565b9250827fffffffffffffffffffffffffffffffffffffffffffffffffffffffffffffffff0382111561317d5761317c613103565b5b828201905092915050565b7f4552433732313a207472616e736665722063616c6c6572206973206e6f74206f60008201527f776e6572206e6f7220617070726f766564000000000000000000000000000000602082015250565b60006131e4603183612839565b91506131ef82613188565b604082019050919050565b60006020820190508181036000830152613213816131d7565b9050919050565b7f455243373231456e756d657261626c653a206f776e657220696e646578206f7560008201527f74206f6620626f756e6473000000000000000000000000000000000000000000602082015250565b6000613276602b83612839565b91506132818261321a565b604082019050919050565b600060208201905081810360008301526132a581613269565b9050919050565b7f4f776e61626c653a2063616c6c6572206973206e6f7420746865206f776e6572600082015250565b60006132e2602083612839565b91506132ed826132ac565b602082019050919050565b60006020820190508181036000830152613311816132d5565b9050919050565b600081905092915050565b50565b6000613333600083613318565b915061333e82613323565b600082019050919050565b600061335482613326565b9150819050919050565b7f4e487b7100000000000000000000000000000000000000000000000000000000600052603260045260246000fd5b6000613398826128e9565b91507fffffffffffffffffffffffffffffffffffffffffffffffffffffffffffffffff8214156133cb576133ca613103565b5b600182019050919050565b7f455243373231456e756d657261626c653a20676c6f62616c20696e646578206f60008201527f7574206f6620626f756e64730000000000000000000000000000000000000000602082015250565b6000613432602c83612839565b915061343d826133d6565b604082019050919050565b6000602082019050818103600083015261346181613425565b9050919050565b7f4552433732313a206f776e657220717565727920666f72206e6f6e657869737460008201527f656e7420746f6b656e0000000000000000000000000000000000000000000000602082015250565b60006134c4602983612839565b91506134cf82613468565b604082019050919050565b600060208201905081810360008301526134f3816134b7565b9050919050565b7f4552433732313a2062616c616e636520717565727920666f7220746865207a6560008201527f726f206164647265737300000000000000000000000000000000000000000000602082015250565b6000613556602a83612839565b9150613561826134fa565b604082019050919050565b6000602082019050818103600083015261358581613549565b9050919050565b7f4552433732313a20617070726f766520746f2063616c6c657200000000000000600082015250565b60006135c2601983612839565b91506135cd8261358c565b602082019050919050565b600060208201905081810360008301526135f1816135b5565b9050919050565b7f4552433732314d657461646174613a2055524920717565727920666f72206e6f60008201527f6e6578697374656e7420746f6b656e0000000000000000000000000000000000602082015250565b6000613654602f83612839565b915061365f826135f8565b604082019050919050565b6000602082019050818103600083015261368381613647565b9050919050565b600081905092915050565b60006136a08261282e565b6136aa818561368a565b93506136ba81856020860161284a565b80840191505092915050565b60008190508160005260206000209050919050565b600081546136e881612f1b565b6136f2818661368a565b9450600182166000811461370d576001811461371e57613751565b60ff19831686528186019350613751565b613727856136c6565b60005b838110156137495781548189015260018201915060208101905061372a565b838801955050505b50505092915050565b60006137668286613695565b91506137728285613695565b915061377e82846136db565b9150819050949350505050565b7f4f776e61626c653a206e6577206f776e657220697320746865207a65726f206160008201527f6464726573730000000000000000000000000000000000000000000000000000602082015250565b60006137e7602683612839565b91506137f28261378b565b604082019050919050565b60006020820190508181036000830152613816816137da565b9050919050565b7f4552433732313a206f70657261746f7220717565727920666f72206e6f6e657860008201527f697374656e7420746f6b656e0000000000000000000000000000000000000000602082015250565b6000613879602c83612839565b91506138848261381d565b604082019050919050565b600060208201905081810360008301526138a88161386c565b9050919050565b7f4552433732313a207472616e73666572206f6620746f6b656e2074686174206960008201527f73206e6f74206f776e0000000000000000000000000000000000000000000000602082015250565b600061390b602983612839565b9150613916826138af565b604082019050919050565b6000602082019050818103600083015261393a816138fe565b9050919050565b7f4552433732313a207472616e7366657220746f20746865207a65726f2061646460008201527f7265737300000000000000000000000000000000000000000000000000000000602082015250565b600061399d602483612839565b91506139a882613941565b604082019050919050565b600060208201905081810360008301526139cc81613990565b9050919050565b60006139de826128e9565b91506139e9836128e9565b9250828210156139fc576139fb613103565b5b828203905092915050565b7f4552433732313a207472616e7366657220746f206e6f6e20455243373231526560008201527f63656976657220696d706c656d656e7465720000000000000000000000000000602082015250565b6000613a63603283612839565b9150613a6e82613a07565b604082019050919050565b60006020820190508181036000830152613a9281613a56565b9050919050565b7f4e487b7100000000000000000000000000000000000000000000000000000000600052601260045260246000fd5b6000613ad3826128e9565b9150613ade836128e9565b925082613aee57613aed613a99565b5b828204905092915050565b6000613b04826128e9565b9150613b0f836128e9565b925082613b1f57613b1e613a99565b5b828206905092915050565b600081519050919050565b600082825260208201905092915050565b6000613b5182613b2a565b613b5b8185613b35565b9350613b6b81856020860161284a565b613b748161287d565b840191505092915050565b6000608082019050613b94600083018761297e565b613ba1602083018661297e565b613bae6040830185612a14565b8181036060830152613bc08184613b46565b905095945050505050565b600081519050613bda8161279f565b92915050565b600060208284031215613bf657613bf5612769565b5b6000613c0484828501613bcb565b91505092915050565b7f4552433732313a206d696e7420746f20746865207a65726f2061646472657373600082015250565b6000613c43602083612839565b9150613c4e82613c0d565b602082019050919050565b60006020820190508181036000830152613c7281613c36565b9050919050565b7f4552433732313a20746f6b656e20616c7265616479206d696e74656400000000600082015250565b6000613caf601c83612839565b9150613cba82613c79565b602082019050919050565b60006020820190508181036000830152613cde81613ca2565b9050919050565b7f4e487b7100000000000000000000000000000000000000000000000000000000600052603160045260246000fdfea2646970667358221220e9202ca45b8249e93e322391dce22908c386db2eed1afecc7e9e6d69a01c102764736f6c634300080a0033",
  "immutableReferences": {},
  "source": "// SPDX-License-Identifier: MIT\n\nimport \"../openzeppelin-contracts/contracts/utils/introspection/IERC165.sol\";\nimport \"../openzeppelin-contracts/contracts/token/ERC721/IERC721.sol\";\nimport \"../openzeppelin-contracts/contracts/token/ERC721/extensions/IERC721Enumerable.sol\";\nimport \"../openzeppelin-contracts/contracts/utils/introspection/ERC165.sol\";\nimport \"../openzeppelin-contracts/contracts/utils/Strings.sol\";\nimport \"../openzeppelin-contracts/contracts/utils/Address.sol\";\nimport \"../openzeppelin-contracts/contracts/token/ERC721/extensions/IERC721Metadata.sol\";\nimport \"../openzeppelin-contracts/contracts/token/ERC721/IERC721Receiver.sol\";\nimport \"../openzeppelin-contracts/contracts/utils/Context.sol\";\nimport \"../openzeppelin-contracts/contracts/token/ERC721/ERC721.sol\";\nimport \"../openzeppelin-contracts/contracts/token/ERC721/extensions/ERC721Enumerable.sol\";\nimport \"../openzeppelin-contracts/contracts/access/Ownable.sol\";\n\npragma solidity >=0.7.0 <0.9.0;\n\ncontract NFT is ERC721Enumerable, Ownable {\n    using Strings for uint256;\n\n    string baseURI;\n    string public baseExtension = \".json\";\n    uint256 public cost = 1 ether;\n    uint256 public maxSupply = 20;\n\n    constructor(\n        string memory _name,\n        string memory _symbol,\n        string memory _initBaseURI\n    ) ERC721(_name, _symbol) {\n        setBaseURI(_initBaseURI);\n    }\n\n    // internal\n    function _baseURI() internal view virtual override returns (string memory) {\n        return baseURI;\n    }\n\n    // public\n    function mint() public payable {\n        uint256 supply = totalSupply();\n        require(supply <= maxSupply);\n\n        if (msg.sender != owner()) {\n            require(msg.value >= cost);\n        }\n\n        _safeMint(msg.sender, supply + 1);\n    }\n\n    function walletOfOwner(address _owner)\n        public\n        view\n        returns (uint256[] memory)\n    {\n        uint256 ownerTokenCount = balanceOf(_owner);\n        uint256[] memory tokenIds = new uint256[](ownerTokenCount);\n        for (uint256 i; i < ownerTokenCount; i++) {\n            tokenIds[i] = tokenOfOwnerByIndex(_owner, i);\n        }\n        return tokenIds;\n    }\n\n    function tokenURI(uint256 tokenId)\n        public\n        view\n        virtual\n        override\n        returns (string memory)\n    {\n        require(\n            _exists(tokenId),\n            \"ERC721Metadata: URI query for nonexistent token\"\n        );\n\n        string memory currentBaseURI = _baseURI();\n        return\n            bytes(currentBaseURI).length > 0\n                ? string(\n                    abi.encodePacked(\n                        currentBaseURI,\n                        tokenId.toString(),\n                        baseExtension\n                    )\n                )\n                : \"\";\n    }\n\n    // Only owner\n    function setCost(uint256 _newCost) public onlyOwner {\n        cost = _newCost;\n    }\n\n    function setBaseURI(string memory _newBaseURI) public onlyOwner {\n        baseURI = _newBaseURI;\n    }\n\n    function withdraw() public payable onlyOwner {\n        (bool success, ) = payable(msg.sender).call{\n            value: address(this).balance\n        }(\"\");\n        require(success);\n    }\n}\n",
  "sourcePath": "/Users/jun/workspace/nft/mint-ruby/contracts/NFT.sol",
  "compiler": {
    "name": "solc",
    "version": "0.8.10+commit.fc410830.Emscripten.clang"
  },
  "schemaVersion": "3.4.4",
  "updatedAt": "2022-01-09T06:22:15.865Z",
  "networkType": "ethereum",
  "devdoc": {
    "kind": "dev",
    "methods": {
      "approve(address,uint256)": {
        "details": "See {IERC721-approve}."
      },
      "balanceOf(address)": {
        "details": "See {IERC721-balanceOf}."
      },
      "getApproved(uint256)": {
        "details": "See {IERC721-getApproved}."
      },
      "isApprovedForAll(address,address)": {
        "details": "See {IERC721-isApprovedForAll}."
      },
      "name()": {
        "details": "See {IERC721Metadata-name}."
      },
      "owner()": {
        "details": "Returns the address of the current owner."
      },
      "ownerOf(uint256)": {
        "details": "See {IERC721-ownerOf}."
      },
      "renounceOwnership()": {
        "details": "Leaves the contract without owner. It will not be possible to call `onlyOwner` functions anymore. Can only be called by the current owner. NOTE: Renouncing ownership will leave the contract without an owner, thereby removing any functionality that is only available to the owner."
      },
      "safeTransferFrom(address,address,uint256)": {
        "details": "See {IERC721-safeTransferFrom}."
      },
      "safeTransferFrom(address,address,uint256,bytes)": {
        "details": "See {IERC721-safeTransferFrom}."
      },
      "setApprovalForAll(address,bool)": {
        "details": "See {IERC721-setApprovalForAll}."
      },
      "supportsInterface(bytes4)": {
        "details": "See {IERC165-supportsInterface}."
      },
      "symbol()": {
        "details": "See {IERC721Metadata-symbol}."
      },
      "tokenByIndex(uint256)": {
        "details": "See {IERC721Enumerable-tokenByIndex}."
      },
      "tokenOfOwnerByIndex(address,uint256)": {
        "details": "See {IERC721Enumerable-tokenOfOwnerByIndex}."
      },
      "tokenURI(uint256)": {
        "details": "See {IERC721Metadata-tokenURI}."
      },
      "totalSupply()": {
        "details": "See {IERC721Enumerable-totalSupply}."
      },
      "transferFrom(address,address,uint256)": {
        "details": "See {IERC721-transferFrom}."
      },
      "transferOwnership(address)": {
        "details": "Transfers ownership of the contract to a new account (`newOwner`). Can only be called by the current owner."
      }
    },
    "version": 1
  },
  "userdoc": {
    "kind": "user",
    "methods": {},
    "version": 1
  }
}